{
	"Fundme/Fundme.sol": {
		"fundme": {
			"abi": [
				{
					"inputs": [],
					"name": "fund",
					"outputs": [],
					"stateMutability": "payable",
					"type": "function"
				},
				{
					"inputs": [],
					"name": "getConversionRate",
					"outputs": [],
					"stateMutability": "nonpayable",
					"type": "function"
				},
				{
					"inputs": [],
					"name": "getPrice",
					"outputs": [],
					"stateMutability": "nonpayable",
					"type": "function"
				},
				{
					"inputs": [],
					"name": "minUsd",
					"outputs": [
						{
							"internalType": "uint256",
							"name": "",
							"type": "uint256"
						}
					],
					"stateMutability": "view",
					"type": "function"
				}
			],
			"devdoc": {
				"kind": "dev",
				"methods": {},
				"version": 1
			},
			"evm": {
				"assembly": "    /* \"Fundme/Fundme.sol\":624:985  contract fundme {... */\n  mstore(0x40, 0x80)\n    /* \"Fundme/Fundme.sol\":686:687  5 */\n  0x05\n    /* \"Fundme/Fundme.sol\":661:687  uint256 public  minUsd = 5 */\n  0x00\n  sstore\n    /* \"Fundme/Fundme.sol\":624:985  contract fundme {... */\n  callvalue\n  dup1\n  iszero\n  tag_1\n  jumpi\n  0x00\n  dup1\n  revert\ntag_1:\n  pop\n  dataSize(sub_0)\n  dup1\n  dataOffset(sub_0)\n  0x00\n  codecopy\n  0x00\n  return\nstop\n\nsub_0: assembly {\n        /* \"Fundme/Fundme.sol\":624:985  contract fundme {... */\n      mstore(0x40, 0x80)\n      jumpi(tag_1, lt(calldatasize, 0x04))\n      shr(0xe0, calldataload(0x00))\n      dup1\n      0x51b80e41\n      eq\n      tag_2\n      jumpi\n      dup1\n      0x98d5fdca\n      eq\n      tag_3\n      jumpi\n      dup1\n      0xb60d4288\n      eq\n      tag_4\n      jumpi\n      dup1\n      0xf36089ec\n      eq\n      tag_5\n      jumpi\n    tag_1:\n      0x00\n      dup1\n      revert\n        /* \"Fundme/Fundme.sol\":661:687  uint256 public  minUsd = 5 */\n    tag_2:\n      callvalue\n      dup1\n      iszero\n      tag_6\n      jumpi\n      0x00\n      dup1\n      revert\n    tag_6:\n      pop\n      tag_7\n      tag_8\n      jump\t// in\n    tag_7:\n      mload(0x40)\n      tag_9\n      swap2\n      swap1\n      tag_10\n      jump\t// in\n    tag_9:\n      mload(0x40)\n      dup1\n      swap2\n      sub\n      swap1\n      return\n        /* \"Fundme/Fundme.sol\":810:917  function getPrice() public  {... */\n    tag_3:\n      callvalue\n      dup1\n      iszero\n      tag_11\n      jumpi\n      0x00\n      dup1\n      revert\n    tag_11:\n      pop\n      tag_12\n      tag_13\n      jump\t// in\n    tag_12:\n      stop\n        /* \"Fundme/Fundme.sol\":700:800  function fund() public payable  {... */\n    tag_4:\n      tag_14\n      tag_15\n      jump\t// in\n    tag_14:\n      stop\n        /* \"Fundme/Fundme.sol\":927:978  function getConversionRate() public  {... */\n    tag_5:\n      callvalue\n      dup1\n      iszero\n      tag_16\n      jumpi\n      0x00\n      dup1\n      revert\n    tag_16:\n      pop\n      tag_17\n      tag_18\n      jump\t// in\n    tag_17:\n      stop\n        /* \"Fundme/Fundme.sol\":661:687  uint256 public  minUsd = 5 */\n    tag_8:\n      sload(0x00)\n      dup2\n      jump\t// out\n        /* \"Fundme/Fundme.sol\":810:917  function getPrice() public  {... */\n    tag_13:\n      jump\t// out\n        /* \"Fundme/Fundme.sol\":700:800  function fund() public payable  {... */\n    tag_15:\n        /* \"Fundme/Fundme.sol\":764:770  minUsd */\n      sload(0x00)\n        /* \"Fundme/Fundme.sol\":751:760  msg.value */\n      callvalue\n        /* \"Fundme/Fundme.sol\":751:770  msg.value >= minUsd */\n      lt\n      iszero\n        /* \"Fundme/Fundme.sol\":743:788  require(msg.value >= minUsd , \"not even eth\") */\n      tag_21\n      jumpi\n      mload(0x40)\n      0x08c379a000000000000000000000000000000000000000000000000000000000\n      dup2\n      mstore\n      0x04\n      add\n      tag_22\n      swap1\n      tag_23\n      jump\t// in\n    tag_22:\n      mload(0x40)\n      dup1\n      swap2\n      sub\n      swap1\n      revert\n    tag_21:\n        /* \"Fundme/Fundme.sol\":700:800  function fund() public payable  {... */\n      jump\t// out\n        /* \"Fundme/Fundme.sol\":927:978  function getConversionRate() public  {... */\n    tag_18:\n      jump\t// out\n        /* \"#utility.yul\":7:84   */\n    tag_25:\n        /* \"#utility.yul\":44:51   */\n      0x00\n        /* \"#utility.yul\":73:78   */\n      dup2\n        /* \"#utility.yul\":62:78   */\n      swap1\n      pop\n        /* \"#utility.yul\":7:84   */\n      swap2\n      swap1\n      pop\n      jump\t// out\n        /* \"#utility.yul\":90:208   */\n    tag_26:\n        /* \"#utility.yul\":177:201   */\n      tag_33\n        /* \"#utility.yul\":195:200   */\n      dup2\n        /* \"#utility.yul\":177:201   */\n      tag_25\n      jump\t// in\n    tag_33:\n        /* \"#utility.yul\":172:175   */\n      dup3\n        /* \"#utility.yul\":165:202   */\n      mstore\n        /* \"#utility.yul\":90:208   */\n      pop\n      pop\n      jump\t// out\n        /* \"#utility.yul\":214:436   */\n    tag_10:\n        /* \"#utility.yul\":307:311   */\n      0x00\n        /* \"#utility.yul\":345:347   */\n      0x20\n        /* \"#utility.yul\":334:343   */\n      dup3\n        /* \"#utility.yul\":330:348   */\n      add\n        /* \"#utility.yul\":322:348   */\n      swap1\n      pop\n        /* \"#utility.yul\":358:429   */\n      tag_35\n        /* \"#utility.yul\":426:427   */\n      0x00\n        /* \"#utility.yul\":415:424   */\n      dup4\n        /* \"#utility.yul\":411:428   */\n      add\n        /* \"#utility.yul\":402:408   */\n      dup5\n        /* \"#utility.yul\":358:429   */\n      tag_26\n      jump\t// in\n    tag_35:\n        /* \"#utility.yul\":214:436   */\n      swap3\n      swap2\n      pop\n      pop\n      jump\t// out\n        /* \"#utility.yul\":442:611   */\n    tag_27:\n        /* \"#utility.yul\":526:537   */\n      0x00\n        /* \"#utility.yul\":560:566   */\n      dup3\n        /* \"#utility.yul\":555:558   */\n      dup3\n        /* \"#utility.yul\":548:567   */\n      mstore\n        /* \"#utility.yul\":600:604   */\n      0x20\n        /* \"#utility.yul\":595:598   */\n      dup3\n        /* \"#utility.yul\":591:605   */\n      add\n        /* \"#utility.yul\":576:605   */\n      swap1\n      pop\n        /* \"#utility.yul\":442:611   */\n      swap3\n      swap2\n      pop\n      pop\n      jump\t// out\n        /* \"#utility.yul\":617:779   */\n    tag_28:\n        /* \"#utility.yul\":757:771   */\n      0x6e6f74206576656e206574680000000000000000000000000000000000000000\n        /* \"#utility.yul\":753:754   */\n      0x00\n        /* \"#utility.yul\":745:751   */\n      dup3\n        /* \"#utility.yul\":741:755   */\n      add\n        /* \"#utility.yul\":734:772   */\n      mstore\n        /* \"#utility.yul\":617:779   */\n      pop\n      jump\t// out\n        /* \"#utility.yul\":785:1151   */\n    tag_29:\n        /* \"#utility.yul\":927:930   */\n      0x00\n        /* \"#utility.yul\":948:1015   */\n      tag_39\n        /* \"#utility.yul\":1012:1014   */\n      0x0c\n        /* \"#utility.yul\":1007:1010   */\n      dup4\n        /* \"#utility.yul\":948:1015   */\n      tag_27\n      jump\t// in\n    tag_39:\n        /* \"#utility.yul\":941:1015   */\n      swap2\n      pop\n        /* \"#utility.yul\":1024:1117   */\n      tag_40\n        /* \"#utility.yul\":1113:1116   */\n      dup3\n        /* \"#utility.yul\":1024:1117   */\n      tag_28\n      jump\t// in\n    tag_40:\n        /* \"#utility.yul\":1142:1144   */\n      0x20\n        /* \"#utility.yul\":1137:1140   */\n      dup3\n        /* \"#utility.yul\":1133:1145   */\n      add\n        /* \"#utility.yul\":1126:1145   */\n      swap1\n      pop\n        /* \"#utility.yul\":785:1151   */\n      swap2\n      swap1\n      pop\n      jump\t// out\n        /* \"#utility.yul\":1157:1576   */\n    tag_23:\n        /* \"#utility.yul\":1323:1327   */\n      0x00\n        /* \"#utility.yul\":1361:1363   */\n      0x20\n        /* \"#utility.yul\":1350:1359   */\n      dup3\n        /* \"#utility.yul\":1346:1364   */\n      add\n        /* \"#utility.yul\":1338:1364   */\n      swap1\n      pop\n        /* \"#utility.yul\":1410:1419   */\n      dup2\n        /* \"#utility.yul\":1404:1408   */\n      dup2\n        /* \"#utility.yul\":1400:1420   */\n      sub\n        /* \"#utility.yul\":1396:1397   */\n      0x00\n        /* \"#utility.yul\":1385:1394   */\n      dup4\n        /* \"#utility.yul\":1381:1398   */\n      add\n        /* \"#utility.yul\":1374:1421   */\n      mstore\n        /* \"#utility.yul\":1438:1569   */\n      tag_42\n        /* \"#utility.yul\":1564:1568   */\n      dup2\n        /* \"#utility.yul\":1438:1569   */\n      tag_29\n      jump\t// in\n    tag_42:\n        /* \"#utility.yul\":1430:1569   */\n      swap1\n      pop\n        /* \"#utility.yul\":1157:1576   */\n      swap2\n      swap1\n      pop\n      jump\t// out\n\n    auxdata: 0xa2646970667358221220337341b2c671a9ea15bf32d7977508283b5a60d9ff66dceddce0ea0121d9c99b64736f6c634300081a0033\n}\n",
				"bytecode": {
					"linkReferences": {},
					"object": "608060405260055f553480156012575f80fd5b506101d0806100205f395ff3fe60806040526004361061003e575f3560e01c806351b80e411461004257806398d5fdca1461006c578063b60d428814610082578063f36089ec1461008c575b5f80fd5b34801561004d575f80fd5b506100566100a2565b6040516100639190610109565b60405180910390f35b348015610077575f80fd5b506100806100a7565b005b61008a6100a9565b005b348015610097575f80fd5b506100a06100ef565b005b5f5481565b565b5f543410156100ed576040517f08c379a00000000000000000000000000000000000000000000000000000000081526004016100e49061017c565b60405180910390fd5b565b565b5f819050919050565b610103816100f1565b82525050565b5f60208201905061011c5f8301846100fa565b92915050565b5f82825260208201905092915050565b7f6e6f74206576656e2065746800000000000000000000000000000000000000005f82015250565b5f610166600c83610122565b915061017182610132565b602082019050919050565b5f6020820190508181035f8301526101938161015a565b905091905056fea2646970667358221220337341b2c671a9ea15bf32d7977508283b5a60d9ff66dceddce0ea0121d9c99b64736f6c634300081a0033",
					"opcodes": "PUSH1 0x80 PUSH1 0x40 MSTORE PUSH1 0x5 PUSH0 SSTORE CALLVALUE DUP1 ISZERO PUSH1 0x12 JUMPI PUSH0 DUP1 REVERT JUMPDEST POP PUSH2 0x1D0 DUP1 PUSH2 0x20 PUSH0 CODECOPY PUSH0 RETURN INVALID PUSH1 0x80 PUSH1 0x40 MSTORE PUSH1 0x4 CALLDATASIZE LT PUSH2 0x3E JUMPI PUSH0 CALLDATALOAD PUSH1 0xE0 SHR DUP1 PUSH4 0x51B80E41 EQ PUSH2 0x42 JUMPI DUP1 PUSH4 0x98D5FDCA EQ PUSH2 0x6C JUMPI DUP1 PUSH4 0xB60D4288 EQ PUSH2 0x82 JUMPI DUP1 PUSH4 0xF36089EC EQ PUSH2 0x8C JUMPI JUMPDEST PUSH0 DUP1 REVERT JUMPDEST CALLVALUE DUP1 ISZERO PUSH2 0x4D JUMPI PUSH0 DUP1 REVERT JUMPDEST POP PUSH2 0x56 PUSH2 0xA2 JUMP JUMPDEST PUSH1 0x40 MLOAD PUSH2 0x63 SWAP2 SWAP1 PUSH2 0x109 JUMP JUMPDEST PUSH1 0x40 MLOAD DUP1 SWAP2 SUB SWAP1 RETURN JUMPDEST CALLVALUE DUP1 ISZERO PUSH2 0x77 JUMPI PUSH0 DUP1 REVERT JUMPDEST POP PUSH2 0x80 PUSH2 0xA7 JUMP JUMPDEST STOP JUMPDEST PUSH2 0x8A PUSH2 0xA9 JUMP JUMPDEST STOP JUMPDEST CALLVALUE DUP1 ISZERO PUSH2 0x97 JUMPI PUSH0 DUP1 REVERT JUMPDEST POP PUSH2 0xA0 PUSH2 0xEF JUMP JUMPDEST STOP JUMPDEST PUSH0 SLOAD DUP2 JUMP JUMPDEST JUMP JUMPDEST PUSH0 SLOAD CALLVALUE LT ISZERO PUSH2 0xED JUMPI PUSH1 0x40 MLOAD PUSH32 0x8C379A000000000000000000000000000000000000000000000000000000000 DUP2 MSTORE PUSH1 0x4 ADD PUSH2 0xE4 SWAP1 PUSH2 0x17C JUMP JUMPDEST PUSH1 0x40 MLOAD DUP1 SWAP2 SUB SWAP1 REVERT JUMPDEST JUMP JUMPDEST JUMP JUMPDEST PUSH0 DUP2 SWAP1 POP SWAP2 SWAP1 POP JUMP JUMPDEST PUSH2 0x103 DUP2 PUSH2 0xF1 JUMP JUMPDEST DUP3 MSTORE POP POP JUMP JUMPDEST PUSH0 PUSH1 0x20 DUP3 ADD SWAP1 POP PUSH2 0x11C PUSH0 DUP4 ADD DUP5 PUSH2 0xFA JUMP JUMPDEST SWAP3 SWAP2 POP POP JUMP JUMPDEST PUSH0 DUP3 DUP3 MSTORE PUSH1 0x20 DUP3 ADD SWAP1 POP SWAP3 SWAP2 POP POP JUMP JUMPDEST PUSH32 0x6E6F74206576656E206574680000000000000000000000000000000000000000 PUSH0 DUP3 ADD MSTORE POP JUMP JUMPDEST PUSH0 PUSH2 0x166 PUSH1 0xC DUP4 PUSH2 0x122 JUMP JUMPDEST SWAP2 POP PUSH2 0x171 DUP3 PUSH2 0x132 JUMP JUMPDEST PUSH1 0x20 DUP3 ADD SWAP1 POP SWAP2 SWAP1 POP JUMP JUMPDEST PUSH0 PUSH1 0x20 DUP3 ADD SWAP1 POP DUP2 DUP2 SUB PUSH0 DUP4 ADD MSTORE PUSH2 0x193 DUP2 PUSH2 0x15A JUMP JUMPDEST SWAP1 POP SWAP2 SWAP1 POP JUMP INVALID LOG2 PUSH5 0x6970667358 0x22 SLT KECCAK256 CALLER PUSH20 0x41B2C671A9EA15BF32D7977508283B5A60D9FF66 0xDC 0xED 0xDC 0xE0 0xEA ADD 0x21 0xD9 0xC9 SWAP12 PUSH5 0x736F6C6343 STOP ADDMOD BYTE STOP CALLER "
				},
				"gasEstimates": {
					"creation": {
						"codeDepositCost": "92800",
						"executionCost": "22244",
						"totalCost": "115044"
					},
					"external": {
						"fund()": "2549",
						"getConversionRate()": "187",
						"getPrice()": "143",
						"minUsd()": "2402"
					}
				},
				"methodIdentifiers": {
					"fund()": "b60d4288",
					"getConversionRate()": "f36089ec",
					"getPrice()": "98d5fdca",
					"minUsd()": "51b80e41"
				}
			},
			"storageLayout": {
				"storage": [
					{
						"astId": 48,
						"contract": "Fundme/Fundme.sol:fundme",
						"label": "minUsd",
						"offset": 0,
						"slot": "0",
						"type": "t_uint256"
					}
				],
				"types": {
					"t_uint256": {
						"encoding": "inplace",
						"label": "uint256",
						"numberOfBytes": "32"
					}
				}
			},
			"userdoc": {
				"kind": "user",
				"methods": {},
				"version": 1
			}
		}
	}
}